{
  "_format": "hh-sol-artifact-1",
  "contractName": "Stake",
  "sourceName": "contracts/Stake.sol",
  "abi": [
    {
      "inputs": [],
      "stateMutability": "nonpayable",
      "type": "constructor"
    },
    {
      "anonymous": false,
      "inputs": [
        {
          "indexed": true,
          "internalType": "address",
          "name": "owner",
          "type": "address"
        },
        {
          "indexed": true,
          "internalType": "address",
          "name": "spender",
          "type": "address"
        },
        {
          "indexed": false,
          "internalType": "uint256",
          "name": "value",
          "type": "uint256"
        }
      ],
      "name": "Approval",
      "type": "event"
    },
    {
      "anonymous": false,
      "inputs": [
        {
          "indexed": true,
          "internalType": "address",
          "name": "previousOwner",
          "type": "address"
        },
        {
          "indexed": true,
          "internalType": "address",
          "name": "newOwner",
          "type": "address"
        }
      ],
      "name": "OwnershipTransferred",
      "type": "event"
    },
    {
      "anonymous": false,
      "inputs": [
        {
          "indexed": false,
          "internalType": "address",
          "name": "account",
          "type": "address"
        }
      ],
      "name": "Paused",
      "type": "event"
    },
    {
      "anonymous": false,
      "inputs": [
        {
          "indexed": true,
          "internalType": "address",
          "name": "from",
          "type": "address"
        },
        {
          "indexed": true,
          "internalType": "address",
          "name": "to",
          "type": "address"
        },
        {
          "indexed": false,
          "internalType": "uint256",
          "name": "value",
          "type": "uint256"
        }
      ],
      "name": "Transfer",
      "type": "event"
    },
    {
      "anonymous": false,
      "inputs": [
        {
          "indexed": false,
          "internalType": "address",
          "name": "account",
          "type": "address"
        }
      ],
      "name": "Unpaused",
      "type": "event"
    },
    {
      "inputs": [
        {
          "internalType": "address",
          "name": "owner",
          "type": "address"
        },
        {
          "internalType": "address",
          "name": "spender",
          "type": "address"
        }
      ],
      "name": "allowance",
      "outputs": [
        {
          "internalType": "uint256",
          "name": "",
          "type": "uint256"
        }
      ],
      "stateMutability": "view",
      "type": "function"
    },
    {
      "inputs": [
        {
          "internalType": "address",
          "name": "spender",
          "type": "address"
        },
        {
          "internalType": "uint256",
          "name": "amount",
          "type": "uint256"
        }
      ],
      "name": "approve",
      "outputs": [
        {
          "internalType": "bool",
          "name": "",
          "type": "bool"
        }
      ],
      "stateMutability": "nonpayable",
      "type": "function"
    },
    {
      "inputs": [
        {
          "internalType": "address",
          "name": "account",
          "type": "address"
        }
      ],
      "name": "balanceOf",
      "outputs": [
        {
          "internalType": "uint256",
          "name": "",
          "type": "uint256"
        }
      ],
      "stateMutability": "view",
      "type": "function"
    },
    {
      "inputs": [
        {
          "internalType": "uint256",
          "name": "amount",
          "type": "uint256"
        }
      ],
      "name": "burn",
      "outputs": [],
      "stateMutability": "nonpayable",
      "type": "function"
    },
    {
      "inputs": [
        {
          "internalType": "address",
          "name": "account",
          "type": "address"
        },
        {
          "internalType": "uint256",
          "name": "amount",
          "type": "uint256"
        }
      ],
      "name": "burnFrom",
      "outputs": [],
      "stateMutability": "nonpayable",
      "type": "function"
    },
    {
      "inputs": [],
      "name": "decimals",
      "outputs": [
        {
          "internalType": "uint8",
          "name": "",
          "type": "uint8"
        }
      ],
      "stateMutability": "view",
      "type": "function"
    },
    {
      "inputs": [
        {
          "internalType": "address",
          "name": "spender",
          "type": "address"
        },
        {
          "internalType": "uint256",
          "name": "subtractedValue",
          "type": "uint256"
        }
      ],
      "name": "decreaseAllowance",
      "outputs": [
        {
          "internalType": "bool",
          "name": "",
          "type": "bool"
        }
      ],
      "stateMutability": "nonpayable",
      "type": "function"
    },
    {
      "inputs": [],
      "name": "handOutAwards",
      "outputs": [],
      "stateMutability": "nonpayable",
      "type": "function"
    },
    {
      "inputs": [
        {
          "internalType": "address",
          "name": "",
          "type": "address"
        }
      ],
      "name": "hasStaked",
      "outputs": [
        {
          "internalType": "bool",
          "name": "",
          "type": "bool"
        }
      ],
      "stateMutability": "view",
      "type": "function"
    },
    {
      "inputs": [
        {
          "internalType": "address",
          "name": "spender",
          "type": "address"
        },
        {
          "internalType": "uint256",
          "name": "addedValue",
          "type": "uint256"
        }
      ],
      "name": "increaseAllowance",
      "outputs": [
        {
          "internalType": "bool",
          "name": "",
          "type": "bool"
        }
      ],
      "stateMutability": "nonpayable",
      "type": "function"
    },
    {
      "inputs": [],
      "name": "interestRate",
      "outputs": [
        {
          "internalType": "uint256",
          "name": "",
          "type": "uint256"
        }
      ],
      "stateMutability": "view",
      "type": "function"
    },
    {
      "inputs": [
        {
          "internalType": "address",
          "name": "",
          "type": "address"
        }
      ],
      "name": "isCurrentlyStaking",
      "outputs": [
        {
          "internalType": "bool",
          "name": "",
          "type": "bool"
        }
      ],
      "stateMutability": "view",
      "type": "function"
    },
    {
      "inputs": [
        {
          "internalType": "address",
          "name": "to",
          "type": "address"
        },
        {
          "internalType": "uint256",
          "name": "amount",
          "type": "uint256"
        }
      ],
      "name": "mint",
      "outputs": [],
      "stateMutability": "nonpayable",
      "type": "function"
    },
    {
      "inputs": [],
      "name": "name",
      "outputs": [
        {
          "internalType": "string",
          "name": "",
          "type": "string"
        }
      ],
      "stateMutability": "view",
      "type": "function"
    },
    {
      "inputs": [],
      "name": "owner",
      "outputs": [
        {
          "internalType": "address",
          "name": "",
          "type": "address"
        }
      ],
      "stateMutability": "view",
      "type": "function"
    },
    {
      "inputs": [],
      "name": "pause",
      "outputs": [],
      "stateMutability": "nonpayable",
      "type": "function"
    },
    {
      "inputs": [],
      "name": "paused",
      "outputs": [
        {
          "internalType": "bool",
          "name": "",
          "type": "bool"
        }
      ],
      "stateMutability": "view",
      "type": "function"
    },
    {
      "inputs": [],
      "name": "renounceOwnership",
      "outputs": [],
      "stateMutability": "nonpayable",
      "type": "function"
    },
    {
      "inputs": [
        {
          "internalType": "uint256",
          "name": "_value",
          "type": "uint256"
        }
      ],
      "name": "setInterestRate",
      "outputs": [],
      "stateMutability": "nonpayable",
      "type": "function"
    },
    {
      "inputs": [
        {
          "internalType": "uint256",
          "name": "amount",
          "type": "uint256"
        }
      ],
      "name": "stake",
      "outputs": [],
      "stateMutability": "nonpayable",
      "type": "function"
    },
    {
      "inputs": [],
      "name": "stakedTokens",
      "outputs": [
        {
          "internalType": "uint256",
          "name": "",
          "type": "uint256"
        }
      ],
      "stateMutability": "view",
      "type": "function"
    },
    {
      "inputs": [
        {
          "internalType": "uint256",
          "name": "",
          "type": "uint256"
        }
      ],
      "name": "stakers",
      "outputs": [
        {
          "internalType": "address",
          "name": "",
          "type": "address"
        }
      ],
      "stateMutability": "view",
      "type": "function"
    },
    {
      "inputs": [
        {
          "internalType": "address",
          "name": "",
          "type": "address"
        }
      ],
      "name": "stakingBalance",
      "outputs": [
        {
          "internalType": "uint256",
          "name": "",
          "type": "uint256"
        }
      ],
      "stateMutability": "view",
      "type": "function"
    },
    {
      "inputs": [],
      "name": "symbol",
      "outputs": [
        {
          "internalType": "string",
          "name": "",
          "type": "string"
        }
      ],
      "stateMutability": "view",
      "type": "function"
    },
    {
      "inputs": [],
      "name": "totalSupply",
      "outputs": [
        {
          "internalType": "uint256",
          "name": "",
          "type": "uint256"
        }
      ],
      "stateMutability": "view",
      "type": "function"
    },
    {
      "inputs": [
        {
          "internalType": "address",
          "name": "to",
          "type": "address"
        },
        {
          "internalType": "uint256",
          "name": "amount",
          "type": "uint256"
        }
      ],
      "name": "transfer",
      "outputs": [
        {
          "internalType": "bool",
          "name": "",
          "type": "bool"
        }
      ],
      "stateMutability": "nonpayable",
      "type": "function"
    },
    {
      "inputs": [
        {
          "internalType": "address",
          "name": "from",
          "type": "address"
        },
        {
          "internalType": "address",
          "name": "to",
          "type": "address"
        },
        {
          "internalType": "uint256",
          "name": "amount",
          "type": "uint256"
        }
      ],
      "name": "transferFrom",
      "outputs": [
        {
          "internalType": "bool",
          "name": "",
          "type": "bool"
        }
      ],
      "stateMutability": "nonpayable",
      "type": "function"
    },
    {
      "inputs": [
        {
          "internalType": "address",
          "name": "newOwner",
          "type": "address"
        }
      ],
      "name": "transferOwnership",
      "outputs": [],
      "stateMutability": "nonpayable",
      "type": "function"
    },
    {
      "inputs": [],
      "name": "unpause",
      "outputs": [],
      "stateMutability": "nonpayable",
      "type": "function"
    },
    {
      "inputs": [],
      "name": "withdrawStakedTokens",
      "outputs": [],
      "stateMutability": "nonpayable",
      "type": "function"
    }
  ],
  "bytecode": "0x60806040523480156200001157600080fd5b5060405180604001604052806004815260200163546f6b6b60e01b81525060405180604001604052806003815260200162544f4b60e81b8152508160039080519060200190620000639291906200028f565b508051620000799060049060208401906200028f565b50506005805460ff19169055506200009133620000cd565b620000ba3360125b620000a690600a6200044a565b620000b49061271062000462565b62000127565b620000c730601262000099565b620004dc565b600580546001600160a01b03838116610100818102610100600160a81b031985161790945560405193909204169182907f8be0079c531659141344cd1fd0a4f28419497f9722a3daafe3b4186f6b6457e090600090a35050565b6001600160a01b038216620001835760405162461bcd60e51b815260206004820152601f60248201527f45524332303a206d696e7420746f20746865207a65726f20616464726573730060448201526064015b60405180910390fd5b62000191600083836200021e565b8060026000828254620001a5919062000484565b90915550506001600160a01b03821660009081526020819052604081208054839290620001d490849062000484565b90915550506040518181526001600160a01b038316906000907fddf252ad1be2c89b69c2b068fc378daa952ba7f163c4a11628f55a4df523b3ef9060200160405180910390a35050565b6200022862000245565b620002408383836200024060201b62000a491760201c565b505050565b60055460ff16156200028d5760405162461bcd60e51b815260206004820152601060248201526f14185d5cd8589b194e881c185d5cd95960821b60448201526064016200017a565b565b8280546200029d906200049f565b90600052602060002090601f016020900481019282620002c157600085556200030c565b82601f10620002dc57805160ff19168380011785556200030c565b828001600101855582156200030c579182015b828111156200030c578251825591602001919060010190620002ef565b506200031a9291506200031e565b5090565b5b808211156200031a57600081556001016200031f565b634e487b7160e01b600052601160045260246000fd5b600181815b808511156200038c57816000190482111562000370576200037062000335565b808516156200037e57918102915b93841c939080029062000350565b509250929050565b600082620003a55750600162000444565b81620003b45750600062000444565b8160018114620003cd5760028114620003d857620003f8565b600191505062000444565b60ff841115620003ec57620003ec62000335565b50506001821b62000444565b5060208310610133831016604e8410600b84101617156200041d575081810a62000444565b6200042983836200034b565b806000190482111562000440576200044062000335565b0290505b92915050565b60006200045b60ff84168362000394565b9392505050565b60008160001904831182151516156200047f576200047f62000335565b500290565b600082198211156200049a576200049a62000335565b500190565b600181811c90821680620004b457607f821691505b60208210811415620004d657634e487b7160e01b600052602260045260246000fd5b50919050565b6114a780620004ec6000396000f3fe608060405234801561001057600080fd5b50600436106101da5760003560e01c806379cc679011610104578063a9059cbb116100a2578063f2fde38b11610071578063f2fde38b14610402578063fa1ba12f14610415578063fb50e9011461041d578063fd5e6dd11461044057600080fd5b8063a9059cbb1461038a578063c93c8f341461039d578063cb629009146103c0578063dd62ed3e146103c957600080fd5b80638da5cb5b116100de5780638da5cb5b1461033257806395d89b411461035c578063a457c2d714610364578063a694fc3a1461037757600080fd5b806379cc67901461030e5780637c3a00fd146103215780638456cb591461032a57600080fd5b806340c10f191161017c5780635f84f3021161014b5780635f84f302146102c25780636a410610146102d557806370a08231146102dd578063715018a61461030657600080fd5b806340c10f191461027157806342966c681461028457806345bc78ab146102975780635c975abb146102b757600080fd5b806323b872dd116101b857806323b872dd14610232578063313ce5671461024557806339509351146102545780633f4ba83a1461026757600080fd5b806306fdde03146101df578063095ea7b3146101fd57806318160ddd14610220575b600080fd5b6101e7610453565b6040516101f49190611218565b60405180910390f35b61021061020b366004611289565b6104e5565b60405190151581526020016101f4565b6002545b6040519081526020016101f4565b6102106102403660046112b3565b6104fd565b604051601281526020016101f4565b610210610262366004611289565b610521565b61026f610560565b005b61026f61027f366004611289565b610572565b61026f6102923660046112ef565b610588565b6102246102a5366004611308565b60096020526000908152604090205481565b60055460ff16610210565b61026f6102d03660046112ef565b610595565b61026f610602565b6102246102eb366004611308565b6001600160a01b031660009081526020819052604090205490565b61026f610711565b61026f61031c366004611289565b610723565b61022460075481565b61026f610738565b60055461010090046001600160a01b03165b6040516001600160a01b0390911681526020016101f4565b6101e7610748565b610210610372366004611289565b610757565b61026f6103853660046112ef565b6107e9565b610210610398366004611289565b6108cc565b6102106103ab366004611308565b600a6020526000908152604090205460ff1681565b61022460065481565b6102246103d736600461132a565b6001600160a01b03918216600090815260016020908152604080832093909416825291909152205490565b61026f610410366004611308565b6108da565b61026f610950565b61021061042b366004611308565b600b6020526000908152604090205460ff1681565b61034461044e3660046112ef565b610a1f565b6060600380546104629061135d565b80601f016020809104026020016040519081016040528092919081815260200182805461048e9061135d565b80156104db5780601f106104b0576101008083540402835291602001916104db565b820191906000526020600020905b8154815290600101906020018083116104be57829003601f168201915b5050505050905090565b6000336104f3818585610a4e565b5060019392505050565b60003361050b858285610b72565b610516858585610c04565b506001949350505050565b3360008181526001602090815260408083206001600160a01b03871684529091528120549091906104f3908290869061055b9087906113ae565b610a4e565b610568610ddd565b610570610e3d565b565b61057a610ddd565b6105848282610e8f565b5050565b6105923382610f7a565b50565b61059d610ddd565b600081116105fd5760405162461bcd60e51b815260206004820152602260248201527f5468657265206973206e6f20706f696e7420696e20686176696e672030207261604482015261746560f01b60648201526084015b60405180910390fd5b600755565b336000908152600960205260409020548061065f5760405162461bcd60e51b815260206004820152601f60248201527f546865726520617265206e6f20746f6b656e7320746f2077697468647261770060448201526064016105f4565b336000908152600960209081526040808320839055600b9091528120805460ff19169055600680548392906106959084906113c6565b909155505060405163a9059cbb60e01b815233600482015260248101829052309063a9059cbb90604401602060405180830381600087803b1580156106d957600080fd5b505af11580156106ed573d6000803e3d6000fd5b505050506040513d601f19601f8201168201806040525081019061058491906113dd565b610719610ddd565b61057060006110d4565b61072e823383610b72565b6105848282610f7a565b610740610ddd565b61057061113b565b6060600480546104629061135d565b3360008181526001602090815260408083206001600160a01b0387168452909152812054909190838110156107dc5760405162461bcd60e51b815260206004820152602560248201527f45524332303a2064656372656173656420616c6c6f77616e63652062656c6f77604482015264207a65726f60d81b60648201526084016105f4565b6105168286868403610a4e565b6107f43330836104fd565b50806006600082825461080791906113ae565b9091555050336000908152600960205260408120805483929061082b9084906113ae565b9091555050336000908152600a602052604090205460ff1661089757600c80546001810182556000919091527fdf6966c971051c3d54ec59162606531493a51404a002842f56009d7e5cf4a8c701805473ffffffffffffffffffffffffffffffffffffffff1916331790555b50336000908152600a602090815260408083208054600160ff199182168117909255600b909352922080549091169091179055565b6000336104f3818585610c04565b6108e2610ddd565b6001600160a01b0381166109475760405162461bcd60e51b815260206004820152602660248201527f4f776e61626c653a206e6577206f776e657220697320746865207a65726f206160448201526564647265737360d01b60648201526084016105f4565b610592816110d4565b610958610ddd565b60005b600c54811015610592576000600c828154811061097a5761097a6113ff565b60009182526020808320909101546007546001600160a01b03909116808452600990925260408320549193506064916109b39190611415565b6109bd9190611434565b6001600160a01b0383166000908152600960205260408120805492935083929091906109ea9084906113ae565b925050819055508060066000828254610a0391906113ae565b9250508190555050508080610a1790611456565b91505061095b565b600c8181548110610a2f57600080fd5b6000918252602090912001546001600160a01b0316905081565b505050565b6001600160a01b038316610ab05760405162461bcd60e51b8152602060048201526024808201527f45524332303a20617070726f76652066726f6d20746865207a65726f206164646044820152637265737360e01b60648201526084016105f4565b6001600160a01b038216610b115760405162461bcd60e51b815260206004820152602260248201527f45524332303a20617070726f766520746f20746865207a65726f206164647265604482015261737360f01b60648201526084016105f4565b6001600160a01b0383811660008181526001602090815260408083209487168084529482529182902085905590518481527f8c5be1e5ebec7d5bd14f71427d1e84f3dd0314c0f7b2291e5b200ac8c7c3b925910160405180910390a3505050565b6001600160a01b038381166000908152600160209081526040808320938616835292905220546000198114610bfe5781811015610bf15760405162461bcd60e51b815260206004820152601d60248201527f45524332303a20696e73756666696369656e7420616c6c6f77616e636500000060448201526064016105f4565b610bfe8484848403610a4e565b50505050565b6001600160a01b038316610c685760405162461bcd60e51b815260206004820152602560248201527f45524332303a207472616e736665722066726f6d20746865207a65726f206164604482015264647265737360d81b60648201526084016105f4565b6001600160a01b038216610cca5760405162461bcd60e51b815260206004820152602360248201527f45524332303a207472616e7366657220746f20746865207a65726f206164647260448201526265737360e81b60648201526084016105f4565b610cd5838383611178565b6001600160a01b03831660009081526020819052604090205481811015610d4d5760405162461bcd60e51b815260206004820152602660248201527f45524332303a207472616e7366657220616d6f756e7420657863656564732062604482015265616c616e636560d01b60648201526084016105f4565b6001600160a01b03808516600090815260208190526040808220858503905591851681529081208054849290610d849084906113ae565b92505081905550826001600160a01b0316846001600160a01b03167fddf252ad1be2c89b69c2b068fc378daa952ba7f163c4a11628f55a4df523b3ef84604051610dd091815260200190565b60405180910390a3610bfe565b6005546001600160a01b036101009091041633146105705760405162461bcd60e51b815260206004820181905260248201527f4f776e61626c653a2063616c6c6572206973206e6f7420746865206f776e657260448201526064016105f4565b610e45611180565b6005805460ff191690557f5db9ee0a495bf2e6ff9c91a7834c1ba4fdd244a5e8aa4e537bd38aeae4b073aa335b6040516001600160a01b03909116815260200160405180910390a1565b6001600160a01b038216610ee55760405162461bcd60e51b815260206004820152601f60248201527f45524332303a206d696e7420746f20746865207a65726f20616464726573730060448201526064016105f4565b610ef160008383611178565b8060026000828254610f0391906113ae565b90915550506001600160a01b03821660009081526020819052604081208054839290610f309084906113ae565b90915550506040518181526001600160a01b038316906000907fddf252ad1be2c89b69c2b068fc378daa952ba7f163c4a11628f55a4df523b3ef9060200160405180910390a35050565b6001600160a01b038216610fda5760405162461bcd60e51b815260206004820152602160248201527f45524332303a206275726e2066726f6d20746865207a65726f206164647265736044820152607360f81b60648201526084016105f4565b610fe682600083611178565b6001600160a01b0382166000908152602081905260409020548181101561105a5760405162461bcd60e51b815260206004820152602260248201527f45524332303a206275726e20616d6f756e7420657863656564732062616c616e604482015261636560f01b60648201526084016105f4565b6001600160a01b03831660009081526020819052604081208383039055600280548492906110899084906113c6565b90915550506040518281526000906001600160a01b038516907fddf252ad1be2c89b69c2b068fc378daa952ba7f163c4a11628f55a4df523b3ef9060200160405180910390a3505050565b600580546001600160a01b0383811661010081810274ffffffffffffffffffffffffffffffffffffffff001985161790945560405193909204169182907f8be0079c531659141344cd1fd0a4f28419497f9722a3daafe3b4186f6b6457e090600090a35050565b6111436111d2565b6005805460ff191660011790557f62e78cea01bee320cd4e420270b5ea74000d11b0c9f74754ebdbfc544b05a258610e723390565b610a496111d2565b60055460ff166105705760405162461bcd60e51b815260206004820152601460248201527f5061757361626c653a206e6f742070617573656400000000000000000000000060448201526064016105f4565b60055460ff16156105705760405162461bcd60e51b815260206004820152601060248201526f14185d5cd8589b194e881c185d5cd95960821b60448201526064016105f4565b600060208083528351808285015260005b8181101561124557858101830151858201604001528201611229565b81811115611257576000604083870101525b50601f01601f1916929092016040019392505050565b80356001600160a01b038116811461128457600080fd5b919050565b6000806040838503121561129c57600080fd5b6112a58361126d565b946020939093013593505050565b6000806000606084860312156112c857600080fd5b6112d18461126d565b92506112df6020850161126d565b9150604084013590509250925092565b60006020828403121561130157600080fd5b5035919050565b60006020828403121561131a57600080fd5b6113238261126d565b9392505050565b6000806040838503121561133d57600080fd5b6113468361126d565b91506113546020840161126d565b90509250929050565b600181811c9082168061137157607f821691505b6020821081141561139257634e487b7160e01b600052602260045260246000fd5b50919050565b634e487b7160e01b600052601160045260246000fd5b600082198211156113c1576113c1611398565b500190565b6000828210156113d8576113d8611398565b500390565b6000602082840312156113ef57600080fd5b8151801515811461132357600080fd5b634e487b7160e01b600052603260045260246000fd5b600081600019048311821515161561142f5761142f611398565b500290565b60008261145157634e487b7160e01b600052601260045260246000fd5b500490565b600060001982141561146a5761146a611398565b506001019056fea264697066735822122048e7043ff2ace65820a9368e758b6158f5f1dff958fdb0e8265506b641f0a4b164736f6c63430008080033",
  "linkReferences": {},
  "deployedLinkReferences": {}
}